{
  "contractName": "Funder",
  "abi": [
    {
      "inputs": [],
      "stateMutability": "nonpayable",
      "type": "constructor"
    },
    {
      "inputs": [],
      "name": "cont",
      "outputs": [
        {
          "internalType": "uint256",
          "name": "",
          "type": "uint256"
        }
      ],
      "stateMutability": "view",
      "type": "function",
      "constant": true
    },
    {
      "inputs": [],
      "name": "extra",
      "outputs": [
        {
          "internalType": "uint256",
          "name": "",
          "type": "uint256"
        }
      ],
      "stateMutability": "view",
      "type": "function",
      "constant": true
    },
    {
      "inputs": [],
      "name": "manager",
      "outputs": [
        {
          "internalType": "address",
          "name": "",
          "type": "address"
        }
      ],
      "stateMutability": "view",
      "type": "function",
      "constant": true
    },
    {
      "inputs": [],
      "name": "numRequests",
      "outputs": [
        {
          "internalType": "uint256",
          "name": "",
          "type": "uint256"
        }
      ],
      "stateMutability": "view",
      "type": "function",
      "constant": true
    },
    {
      "inputs": [
        {
          "internalType": "uint256",
          "name": "",
          "type": "uint256"
        }
      ],
      "name": "requests",
      "outputs": [
        {
          "internalType": "uint256",
          "name": "id",
          "type": "uint256"
        },
        {
          "internalType": "string",
          "name": "img_hash",
          "type": "string"
        },
        {
          "internalType": "string",
          "name": "file_hash",
          "type": "string"
        },
        {
          "internalType": "string",
          "name": "category",
          "type": "string"
        },
        {
          "internalType": "string",
          "name": "description",
          "type": "string"
        },
        {
          "internalType": "address payable",
          "name": "recipient",
          "type": "address"
        },
        {
          "internalType": "uint256",
          "name": "deadline",
          "type": "uint256"
        },
        {
          "internalType": "uint256",
          "name": "target",
          "type": "uint256"
        },
        {
          "internalType": "uint256",
          "name": "raisedAmount",
          "type": "uint256"
        },
        {
          "internalType": "bool",
          "name": "completed",
          "type": "bool"
        },
        {
          "internalType": "uint256",
          "name": "noOfDonors",
          "type": "uint256"
        },
        {
          "internalType": "uint256",
          "name": "approved",
          "type": "uint256"
        }
      ],
      "stateMutability": "view",
      "type": "function",
      "constant": true
    },
    {
      "stateMutability": "payable",
      "type": "receive",
      "payable": true
    },
    {
      "inputs": [
        {
          "internalType": "uint256",
          "name": "i",
          "type": "uint256"
        }
      ],
      "name": "sendEth",
      "outputs": [
        {
          "internalType": "bool",
          "name": "",
          "type": "bool"
        }
      ],
      "stateMutability": "payable",
      "type": "function",
      "payable": true
    },
    {
      "inputs": [],
      "name": "getContractBalance",
      "outputs": [
        {
          "internalType": "uint256",
          "name": "",
          "type": "uint256"
        }
      ],
      "stateMutability": "view",
      "type": "function",
      "constant": true
    },
    {
      "inputs": [
        {
          "internalType": "string",
          "name": "cate",
          "type": "string"
        },
        {
          "internalType": "string",
          "name": "_description",
          "type": "string"
        },
        {
          "internalType": "string",
          "name": "imghash",
          "type": "string"
        },
        {
          "internalType": "string",
          "name": "filehash",
          "type": "string"
        },
        {
          "internalType": "address payable",
          "name": "_recipient",
          "type": "address"
        },
        {
          "internalType": "uint256",
          "name": "_time",
          "type": "uint256"
        },
        {
          "internalType": "uint256",
          "name": "_target",
          "type": "uint256"
        }
      ],
      "name": "createRequests",
      "outputs": [],
      "stateMutability": "nonpayable",
      "type": "function"
    },
    {
      "inputs": [],
      "name": "seemyrequests",
      "outputs": [
        {
          "components": [
            {
              "internalType": "uint256",
              "name": "id",
              "type": "uint256"
            },
            {
              "internalType": "string",
              "name": "img_hash",
              "type": "string"
            },
            {
              "internalType": "string",
              "name": "file_hash",
              "type": "string"
            },
            {
              "internalType": "string",
              "name": "category",
              "type": "string"
            },
            {
              "internalType": "string",
              "name": "description",
              "type": "string"
            },
            {
              "internalType": "address payable",
              "name": "recipient",
              "type": "address"
            },
            {
              "internalType": "uint256",
              "name": "deadline",
              "type": "uint256"
            },
            {
              "internalType": "uint256",
              "name": "target",
              "type": "uint256"
            },
            {
              "internalType": "uint256",
              "name": "raisedAmount",
              "type": "uint256"
            },
            {
              "internalType": "bool",
              "name": "completed",
              "type": "bool"
            },
            {
              "internalType": "uint256",
              "name": "noOfDonors",
              "type": "uint256"
            },
            {
              "internalType": "uint256",
              "name": "approved",
              "type": "uint256"
            }
          ],
          "internalType": "struct Funder.Request[]",
          "name": "",
          "type": "tuple[]"
        }
      ],
      "stateMutability": "view",
      "type": "function",
      "constant": true
    },
    {
      "inputs": [
        {
          "internalType": "uint256",
          "name": "id",
          "type": "uint256"
        },
        {
          "internalType": "uint256",
          "name": "a",
          "type": "uint256"
        }
      ],
      "name": "isApproved",
      "outputs": [],
      "stateMutability": "nonpayable",
      "type": "function"
    },
    {
      "inputs": [
        {
          "internalType": "uint256",
          "name": "id",
          "type": "uint256"
        }
      ],
      "name": "getRequest",
      "outputs": [
        {
          "components": [
            {
              "internalType": "uint256",
              "name": "id",
              "type": "uint256"
            },
            {
              "internalType": "string",
              "name": "img_hash",
              "type": "string"
            },
            {
              "internalType": "string",
              "name": "file_hash",
              "type": "string"
            },
            {
              "internalType": "string",
              "name": "category",
              "type": "string"
            },
            {
              "internalType": "string",
              "name": "description",
              "type": "string"
            },
            {
              "internalType": "address payable",
              "name": "recipient",
              "type": "address"
            },
            {
              "internalType": "uint256",
              "name": "deadline",
              "type": "uint256"
            },
            {
              "internalType": "uint256",
              "name": "target",
              "type": "uint256"
            },
            {
              "internalType": "uint256",
              "name": "raisedAmount",
              "type": "uint256"
            },
            {
              "internalType": "bool",
              "name": "completed",
              "type": "bool"
            },
            {
              "internalType": "uint256",
              "name": "noOfDonors",
              "type": "uint256"
            },
            {
              "internalType": "uint256",
              "name": "approved",
              "type": "uint256"
            }
          ],
          "internalType": "struct Funder.Request",
          "name": "",
          "type": "tuple"
        }
      ],
      "stateMutability": "view",
      "type": "function",
      "constant": true
    },
    {
      "inputs": [],
      "name": "getBid",
      "outputs": [
        {
          "components": [
            {
              "internalType": "uint256",
              "name": "id",
              "type": "uint256"
            },
            {
              "internalType": "string",
              "name": "img_hash",
              "type": "string"
            },
            {
              "internalType": "string",
              "name": "file_hash",
              "type": "string"
            },
            {
              "internalType": "string",
              "name": "category",
              "type": "string"
            },
            {
              "internalType": "string",
              "name": "description",
              "type": "string"
            },
            {
              "internalType": "address payable",
              "name": "recipient",
              "type": "address"
            },
            {
              "internalType": "uint256",
              "name": "deadline",
              "type": "uint256"
            },
            {
              "internalType": "uint256",
              "name": "target",
              "type": "uint256"
            },
            {
              "internalType": "uint256",
              "name": "raisedAmount",
              "type": "uint256"
            },
            {
              "internalType": "bool",
              "name": "completed",
              "type": "bool"
            },
            {
              "internalType": "uint256",
              "name": "noOfDonors",
              "type": "uint256"
            },
            {
              "internalType": "uint256",
              "name": "approved",
              "type": "uint256"
            }
          ],
          "internalType": "struct Funder.Request[]",
          "name": "",
          "type": "tuple[]"
        }
      ],
      "stateMutability": "view",
      "type": "function",
      "constant": true
    },
    {
      "inputs": [],
      "name": "getmanager",
      "outputs": [
        {
          "internalType": "address",
          "name": "",
          "type": "address"
        }
      ],
      "stateMutability": "view",
      "type": "function",
      "constant": true
    },
    {
      "inputs": [],
      "name": "getRequestNo",
      "outputs": [
        {
          "internalType": "uint256",
          "name": "",
          "type": "uint256"
        }
      ],
      "stateMutability": "view",
      "type": "function",
      "constant": true
    },
    {
      "inputs": [
        {
          "internalType": "uint256",
          "name": "i",
          "type": "uint256"
        }
      ],
      "name": "makePayment",
      "outputs": [],
      "stateMutability": "payable",
      "type": "function",
      "payable": true
    },
    {
      "inputs": [],
      "name": "contri",
      "outputs": [
        {
          "internalType": "uint256",
          "name": "",
          "type": "uint256"
        }
      ],
      "stateMutability": "view",
      "type": "function",
      "constant": true
    }
  ],
  "bytecode": "0x608060405234801561001057600080fd5b5033600360006101000a81548173ffffffffffffffffffffffffffffffffffffffff021916908373ffffffffffffffffffffffffffffffffffffffff1602179055506129c7806100616000396000f3fe6080604052600436106100f75760003560e01c80636f9fb98a1161008a578063bf27651111610059578063bf27651114610313578063c58343ef1461033c578063cfc5484814610379578063f52294c3146103a9576100fe565b80636f9fb98a1461024a57806377bd616c1461027557806381d12c58146102a05780639fb42b1f146102e8576100fe565b8063481c6a75116100c6578063481c6a75146101ad5780635114cb52146101d8578063588965e5146101f45780636582b6511461021f576100fe565b8063079ce1ab14610103578063099a019d1461012e578063190024e0146101595780632fa9158a14610184576100fe565b366100fe57005b600080fd5b34801561010f57600080fd5b506101186103d4565b6040516101259190611b1f565b60405180910390f35b34801561013a57600080fd5b506101436103da565b6040516101509190611e19565b60405180910390f35b34801561016557600080fd5b5061016e610796565b60405161017b9190611b1f565b60405180910390f35b34801561019057600080fd5b506101ab60048036038101906101a69190611fdc565b61079c565b005b3480156101b957600080fd5b506101c261093e565b6040516101cf919061210f565b60405180910390f35b6101f260048036038101906101ed919061212a565b610964565b005b34801561020057600080fd5b50610209610b70565b6040516102169190611b1f565b60405180910390f35b34801561022b57600080fd5b50610234610bb7565b6040516102419190611b1f565b60405180910390f35b34801561025657600080fd5b5061025f610bc1565b60405161026c9190611b1f565b60405180910390f35b34801561028157600080fd5b5061028a610bc9565b6040516102979190611e19565b60405180910390f35b3480156102ac57600080fd5b506102c760048036038101906102c2919061212a565b611060565b6040516102df9c9b9a999897969594939291906121bf565b60405180910390f35b3480156102f457600080fd5b506102fd61130d565b60405161030a9190611b1f565b60405180910390f35b34801561031f57600080fd5b5061033a60048036038101906103359190612295565b611313565b005b34801561034857600080fd5b50610363600480360381019061035e919061212a565b6113c2565b60405161037091906123ee565b60405180910390f35b610393600480360381019061038e919061212a565b6116eb565b6040516103a09190612410565b60405180910390f35b3480156103b557600080fd5b506103be6119c0565b6040516103cb919061210f565b60405180910390f35b60025481565b6060600060075467ffffffffffffffff8111156103fa576103f9611e59565b5b60405190808252806020026020018201604052801561043357816020015b6104206119ea565b8152602001906001900390816104185790505b50905060005b60075481101561078e5760006006600083815260200190815260200160002090508060405180610180016040529081600082015481526020016001820180546104819061245a565b80601f01602080910402602001604051908101604052809291908181526020018280546104ad9061245a565b80156104fa5780601f106104cf576101008083540402835291602001916104fa565b820191906000526020600020905b8154815290600101906020018083116104dd57829003601f168201915b505050505081526020016002820180546105139061245a565b80601f016020809104026020016040519081016040528092919081815260200182805461053f9061245a565b801561058c5780601f106105615761010080835404028352916020019161058c565b820191906000526020600020905b81548152906001019060200180831161056f57829003601f168201915b505050505081526020016003820180546105a59061245a565b80601f01602080910402602001604051908101604052809291908181526020018280546105d19061245a565b801561061e5780601f106105f35761010080835404028352916020019161061e565b820191906000526020600020905b81548152906001019060200180831161060157829003601f168201915b505050505081526020016004820180546106379061245a565b80601f01602080910402602001604051908101604052809291908181526020018280546106639061245a565b80156106b05780601f10610685576101008083540402835291602001916106b0565b820191906000526020600020905b81548152906001019060200180831161069357829003601f168201915b505050505081526020016005820160009054906101000a900473ffffffffffffffffffffffffffffffffffffffff1673ffffffffffffffffffffffffffffffffffffffff1673ffffffffffffffffffffffffffffffffffffffff1681526020016006820154815260200160078201548152602001600882015481526020016009820160009054906101000a900460ff16151515158152602001600a8201548152602001600b8201548152505083838151811061076f5761076e61248c565b5b6020026020010181905250508080610786906124ea565b915050610439565b508091505090565b60045481565b600060066000600754815260200190815260200160002090506007548160000181905550878160030190805190602001906107d8929190611a63565b50858160010190805190602001906107f1929190611a63565b508481600201908051906020019061080a929190611a63565b5086816004019080519060200190610823929190611a63565b50838160050160006101000a81548173ffffffffffffffffffffffffffffffffffffffff021916908373ffffffffffffffffffffffffffffffffffffffff1602179055508281600601819055508181600701819055506000816008018190555060008160090160006101000a81548160ff021916908315150217905550600081600b0181905550600081600a0181905550600560003373ffffffffffffffffffffffffffffffffffffffff1673ffffffffffffffffffffffffffffffffffffffff16815260200190815260200160002060075490806001815401808255809150506001900390600052602060002001600090919091909150556007600081548092919061092f906124ea565b91905055505050505050505050565b600360009054906101000a900473ffffffffffffffffffffffffffffffffffffffff1681565b600060066000838152602001908152602001600020905042816006015410156109c2576040517f08c379a00000000000000000000000000000000000000000000000000000000081526004016109b99061257f565b60405180910390fd5b600660008381526020019081526020016000206007015481600801541015610a1f576040517f08c379a0000000000000000000000000000000000000000000000000000000008152600401610a16906125eb565b60405180910390fd5b600181600b015414610a66576040517f08c379a0000000000000000000000000000000000000000000000000000000008152600401610a5d90612657565b60405180910390fd5b600015158160090160009054906101000a900460ff16151514610abe576040517f08c379a0000000000000000000000000000000000000000000000000000000008152600401610ab5906126c3565b60405180910390fd5b8060050160009054906101000a900473ffffffffffffffffffffffffffffffffffffffff1673ffffffffffffffffffffffffffffffffffffffff166108fc606460638460080154610b0f91906126e3565b610b19919061276c565b9081150290604051600060405180830381858888f19350505050158015610b44573d6000803e3d6000fd5b5060018160090160006101000a81548160ff021916908315150217905550600181600b01819055505050565b6000600160003373ffffffffffffffffffffffffffffffffffffffff1673ffffffffffffffffffffffffffffffffffffffff16815260200190815260200160002054905090565b6000600754905090565b600047905090565b60606000600560003373ffffffffffffffffffffffffffffffffffffffff1673ffffffffffffffffffffffffffffffffffffffff1681526020019081526020016000208054905067ffffffffffffffff811115610c2957610c28611e59565b5b604051908082528060200260200182016040528015610c6257816020015b610c4f6119ea565b815260200190600190039081610c475790505b50905060005b600560003373ffffffffffffffffffffffffffffffffffffffff1673ffffffffffffffffffffffffffffffffffffffff1681526020019081526020016000208054905081101561105857600060066000600560003373ffffffffffffffffffffffffffffffffffffffff1673ffffffffffffffffffffffffffffffffffffffff1681526020019081526020016000208481548110610d0957610d0861248c565b5b906000526020600020015481526020019081526020016000209050806040518061018001604052908160008201548152602001600182018054610d4b9061245a565b80601f0160208091040260200160405190810160405280929190818152602001828054610d779061245a565b8015610dc45780601f10610d9957610100808354040283529160200191610dc4565b820191906000526020600020905b815481529060010190602001808311610da757829003601f168201915b50505050508152602001600282018054610ddd9061245a565b80601f0160208091040260200160405190810160405280929190818152602001828054610e099061245a565b8015610e565780601f10610e2b57610100808354040283529160200191610e56565b820191906000526020600020905b815481529060010190602001808311610e3957829003601f168201915b50505050508152602001600382018054610e6f9061245a565b80601f0160208091040260200160405190810160405280929190818152602001828054610e9b9061245a565b8015610ee85780601f10610ebd57610100808354040283529160200191610ee8565b820191906000526020600020905b815481529060010190602001808311610ecb57829003601f168201915b50505050508152602001600482018054610f019061245a565b80601f0160208091040260200160405190810160405280929190818152602001828054610f2d9061245a565b8015610f7a5780601f10610f4f57610100808354040283529160200191610f7a565b820191906000526020600020905b815481529060010190602001808311610f5d57829003601f168201915b505050505081526020016005820160009054906101000a900473ffffffffffffffffffffffffffffffffffffffff1673ffffffffffffffffffffffffffffffffffffffff1673ffffffffffffffffffffffffffffffffffffffff1681526020016006820154815260200160078201548152602001600882015481526020016009820160009054906101000a900460ff16151515158152602001600a8201548152602001600b820154815250508383815181106110395761103861248c565b5b6020026020010181905250508080611050906124ea565b915050610c68565b508091505090565b60066020528060005260406000206000915090508060000154908060010180546110899061245a565b80601f01602080910402602001604051908101604052809291908181526020018280546110b59061245a565b80156111025780601f106110d757610100808354040283529160200191611102565b820191906000526020600020905b8154815290600101906020018083116110e557829003601f168201915b5050505050908060020180546111179061245a565b80601f01602080910402602001604051908101604052809291908181526020018280546111439061245a565b80156111905780601f1061116557610100808354040283529160200191611190565b820191906000526020600020905b81548152906001019060200180831161117357829003601f168201915b5050505050908060030180546111a59061245a565b80601f01602080910402602001604051908101604052809291908181526020018280546111d19061245a565b801561121e5780601f106111f35761010080835404028352916020019161121e565b820191906000526020600020905b81548152906001019060200180831161120157829003601f168201915b5050505050908060040180546112339061245a565b80601f016020809104026020016040519081016040528092919081815260200182805461125f9061245a565b80156112ac5780601f10611281576101008083540402835291602001916112ac565b820191906000526020600020905b81548152906001019060200180831161128f57829003601f168201915b5050505050908060050160009054906101000a900473ffffffffffffffffffffffffffffffffffffffff16908060060154908060070154908060080154908060090160009054906101000a900460ff169080600a01549080600b015490508c565b60075481565b600360009054906101000a900473ffffffffffffffffffffffffffffffffffffffff1673ffffffffffffffffffffffffffffffffffffffff163373ffffffffffffffffffffffffffffffffffffffff16146113a3576040517f08c379a000000000000000000000000000000000000000000000000000000000815260040161139a9061280f565b60405180910390fd5b8060066000848152602001908152602001600020600b01819055505050565b6113ca6119ea565b60006006600084815260200190815260200160002090508060405180610180016040529081600082015481526020016001820180546114089061245a565b80601f01602080910402602001604051908101604052809291908181526020018280546114349061245a565b80156114815780601f1061145657610100808354040283529160200191611481565b820191906000526020600020905b81548152906001019060200180831161146457829003601f168201915b5050505050815260200160028201805461149a9061245a565b80601f01602080910402602001604051908101604052809291908181526020018280546114c69061245a565b80156115135780601f106114e857610100808354040283529160200191611513565b820191906000526020600020905b8154815290600101906020018083116114f657829003601f168201915b5050505050815260200160038201805461152c9061245a565b80601f01602080910402602001604051908101604052809291908181526020018280546115589061245a565b80156115a55780601f1061157a576101008083540402835291602001916115a5565b820191906000526020600020905b81548152906001019060200180831161158857829003601f168201915b505050505081526020016004820180546115be9061245a565b80601f01602080910402602001604051908101604052809291908181526020018280546115ea9061245a565b80156116375780601f1061160c57610100808354040283529160200191611637565b820191906000526020600020905b81548152906001019060200180831161161a57829003601f168201915b505050505081526020016005820160009054906101000a900473ffffffffffffffffffffffffffffffffffffffff1673ffffffffffffffffffffffffffffffffffffffff1673ffffffffffffffffffffffffffffffffffffffff1681526020016006820154815260200160078201548152602001600882015481526020016009820160009054906101000a900460ff16151515158152602001600a8201548152602001600b82015481525050915050919050565b600060066000838152602001908152602001600020600601544210611745576040517f08c379a000000000000000000000000000000000000000000000000000000000815260040161173c9061287b565b60405180910390fd5b60066000838152602001908152602001600020600701546006600084815260200190815260200160002060080154106117b3576040517f08c379a00000000000000000000000000000000000000000000000000000000081526004016117aa906128e7565b60405180910390fd5b60066000838152602001908152602001600020600a0160008154809291906117da906124ea565b9190505550600015156000803373ffffffffffffffffffffffffffffffffffffffff1673ffffffffffffffffffffffffffffffffffffffff16815260200190815260200160002060009054906101000a900460ff16151514156118a75760016000803373ffffffffffffffffffffffffffffffffffffffff1673ffffffffffffffffffffffffffffffffffffffff16815260200190815260200160002060006101000a81548160ff021916908315150217905550600260008154809291906118a1906124ea565b91905055505b346006600084815260200190815260200160002060080160008282546118cd9190612907565b9250508190555034600160003373ffffffffffffffffffffffffffffffffffffffff1673ffffffffffffffffffffffffffffffffffffffff16815260200190815260200160002060008282546119239190612907565b9250508190555060066000838152602001908152602001600020600701546006600084815260200190815260200160002060080154106119b75760066000838152602001908152602001600020600701546006600084815260200190815260200160002060080154611995919061295d565b600460008282546119a69190612907565b925050819055506119b682610964565b5b60019050919050565b6000600360009054906101000a900473ffffffffffffffffffffffffffffffffffffffff16905090565b6040518061018001604052806000815260200160608152602001606081526020016060815260200160608152602001600073ffffffffffffffffffffffffffffffffffffffff16815260200160008152602001600081526020016000815260200160001515815260200160008152602001600081525090565b828054611a6f9061245a565b90600052602060002090601f016020900481019282611a915760008555611ad8565b82601f10611aaa57805160ff1916838001178555611ad8565b82800160010185558215611ad8579182015b82811115611ad7578251825591602001919060010190611abc565b5b509050611ae59190611ae9565b5090565b5b80821115611b02576000816000905550600101611aea565b5090565b6000819050919050565b611b1981611b06565b82525050565b6000602082019050611b346000830184611b10565b92915050565b600081519050919050565b600082825260208201905092915050565b6000819050602082019050919050565b611b6f81611b06565b82525050565b600081519050919050565b600082825260208201905092915050565b60005b83811015611baf578082015181840152602081019050611b94565b83811115611bbe576000848401525b50505050565b6000601f19601f8301169050919050565b6000611be082611b75565b611bea8185611b80565b9350611bfa818560208601611b91565b611c0381611bc4565b840191505092915050565b600073ffffffffffffffffffffffffffffffffffffffff82169050919050565b6000611c3982611c0e565b9050919050565b611c4981611c2e565b82525050565b60008115159050919050565b611c6481611c4f565b82525050565b600061018083016000830151611c836000860182611b66565b5060208301518482036020860152611c9b8282611bd5565b91505060408301518482036040860152611cb58282611bd5565b91505060608301518482036060860152611ccf8282611bd5565b91505060808301518482036080860152611ce98282611bd5565b91505060a0830151611cfe60a0860182611c40565b5060c0830151611d1160c0860182611b66565b5060e0830151611d2460e0860182611b66565b50610100830151611d39610100860182611b66565b50610120830151611d4e610120860182611c5b565b50610140830151611d63610140860182611b66565b50610160830151611d78610160860182611b66565b508091505092915050565b6000611d8f8383611c6a565b905092915050565b6000602082019050919050565b6000611daf82611b3a565b611db98185611b45565b935083602082028501611dcb85611b56565b8060005b85811015611e075784840389528151611de88582611d83565b9450611df383611d97565b925060208a01995050600181019050611dcf565b50829750879550505050505092915050565b60006020820190508181036000830152611e338184611da4565b905092915050565b6000604051905090565b600080fd5b600080fd5b600080fd5b600080fd5b7f4e487b7100000000000000000000000000000000000000000000000000000000600052604160045260246000fd5b611e9182611bc4565b810181811067ffffffffffffffff82111715611eb057611eaf611e59565b5b80604052505050565b6000611ec3611e3b565b9050611ecf8282611e88565b919050565b600067ffffffffffffffff821115611eef57611eee611e59565b5b611ef882611bc4565b9050602081019050919050565b82818337600083830152505050565b6000611f27611f2284611ed4565b611eb9565b905082815260208101848484011115611f4357611f42611e54565b5b611f4e848285611f05565b509392505050565b600082601f830112611f6b57611f6a611e4f565b5b8135611f7b848260208601611f14565b91505092915050565b611f8d81611c2e565b8114611f9857600080fd5b50565b600081359050611faa81611f84565b92915050565b611fb981611b06565b8114611fc457600080fd5b50565b600081359050611fd681611fb0565b92915050565b600080600080600080600060e0888a031215611ffb57611ffa611e45565b5b600088013567ffffffffffffffff81111561201957612018611e4a565b5b6120258a828b01611f56565b975050602088013567ffffffffffffffff81111561204657612045611e4a565b5b6120528a828b01611f56565b965050604088013567ffffffffffffffff81111561207357612072611e4a565b5b61207f8a828b01611f56565b955050606088013567ffffffffffffffff8111156120a05761209f611e4a565b5b6120ac8a828b01611f56565b94505060806120bd8a828b01611f9b565b93505060a06120ce8a828b01611fc7565b92505060c06120df8a828b01611fc7565b91505092959891949750929550565b60006120f982611c0e565b9050919050565b612109816120ee565b82525050565b60006020820190506121246000830184612100565b92915050565b6000602082840312156121405761213f611e45565b5b600061214e84828501611fc7565b91505092915050565b600082825260208201905092915050565b600061217382611b75565b61217d8185612157565b935061218d818560208601611b91565b61219681611bc4565b840191505092915050565b6121aa81611c2e565b82525050565b6121b981611c4f565b82525050565b6000610180820190506121d5600083018f611b10565b81810360208301526121e7818e612168565b905081810360408301526121fb818d612168565b9050818103606083015261220f818c612168565b90508181036080830152612223818b612168565b905061223260a083018a6121a1565b61223f60c0830189611b10565b61224c60e0830188611b10565b61225a610100830187611b10565b6122686101208301866121b0565b612276610140830185611b10565b612284610160830184611b10565b9d9c50505050505050505050505050565b600080604083850312156122ac576122ab611e45565b5b60006122ba85828601611fc7565b92505060206122cb85828601611fc7565b9150509250929050565b6000610180830160008301516122ee6000860182611b66565b50602083015184820360208601526123068282611bd5565b915050604083015184820360408601526123208282611bd5565b9150506060830151848203606086015261233a8282611bd5565b915050608083015184820360808601526123548282611bd5565b91505060a083015161236960a0860182611c40565b5060c083015161237c60c0860182611b66565b5060e083015161238f60e0860182611b66565b506101008301516123a4610100860182611b66565b506101208301516123b9610120860182611c5b565b506101408301516123ce610140860182611b66565b506101608301516123e3610160860182611b66565b508091505092915050565b6000602082019050818103600083015261240881846122d5565b905092915050565b600060208201905061242560008301846121b0565b92915050565b7f4e487b7100000000000000000000000000000000000000000000000000000000600052602260045260246000fd5b6000600282049050600182168061247257607f821691505b602082108114156124865761248561242b565b5b50919050565b7f4e487b7100000000000000000000000000000000000000000000000000000000600052603260045260246000fd5b7f4e487b7100000000000000000000000000000000000000000000000000000000600052601160045260246000fd5b60006124f582611b06565b91507fffffffffffffffffffffffffffffffffffffffffffffffffffffffffffffffff821415612528576125276124bb565b5b600182019050919050565b7f446561646c696e65205061737365640000000000000000000000000000000000600082015250565b6000612569600f83612157565b915061257482612533565b602082019050919050565b600060208201905081810360008301526125988161255c565b9050919050565b7f546172676574206e6f7420416368656976656420596574000000000000000000600082015250565b60006125d5601783612157565b91506125e08261259f565b602082019050919050565b60006020820190508181036000830152612604816125c8565b9050919050565b7f52657175657374206e6f7420617070726f766564000000000000000000000000600082015250565b6000612641601483612157565b915061264c8261260b565b602082019050919050565b6000602082019050818103600083015261267081612634565b9050919050565b7f546865207265717565737420686173206265656e20636f6d706c657465640000600082015250565b60006126ad601e83612157565b91506126b882612677565b602082019050919050565b600060208201905081810360008301526126dc816126a0565b9050919050565b60006126ee82611b06565b91506126f983611b06565b9250817fffffffffffffffffffffffffffffffffffffffffffffffffffffffffffffffff0483118215151615612732576127316124bb565b5b828202905092915050565b7f4e487b7100000000000000000000000000000000000000000000000000000000600052601260045260246000fd5b600061277782611b06565b915061278283611b06565b9250826127925761279161273d565b5b828204905092915050565b7f4f6e6c79206d616e616765722063616e2063616c6c6c20746869732066756e6360008201527f74696f6e00000000000000000000000000000000000000000000000000000000602082015250565b60006127f9602483612157565b91506128048261279d565b604082019050919050565b60006020820190508181036000830152612828816127ec565b9050919050565b7f646561646c696e65207061737365640000000000000000000000000000000000600082015250565b6000612865600f83612157565b91506128708261282f565b602082019050919050565b6000602082019050818103600083015261289481612858565b9050919050565b7f7461726765742041636869657665640000000000000000000000000000000000600082015250565b60006128d1600f83612157565b91506128dc8261289b565b602082019050919050565b60006020820190508181036000830152612900816128c4565b9050919050565b600061291282611b06565b915061291d83611b06565b9250827fffffffffffffffffffffffffffffffffffffffffffffffffffffffffffffffff03821115612952576129516124bb565b5b828201905092915050565b600061296882611b06565b915061297383611b06565b925082821015612986576129856124bb565b5b82820390509291505056fea26469706673582212203c28afdf5c6e2bb9bcd112596815f1d3cb803594b38ad49b0aefa83242bcb3a364736f6c63430008090033",
  "immutableReferences": {},
  "source": "// SPDX-License-Identifier: MIT\r\npragma solidity >=0.4.22 <0.9.0;\r\n\r\ncontract Funder {\r\n    mapping(address => bool) contributors;\r\n    mapping(address => uint256) contributes;\r\n\r\n    uint256 public cont;\r\n    address public manager;\r\n    uint256 public extra;\r\n\r\n    struct Request {\r\n        uint256 id;\r\n        string img_hash;\r\n        string file_hash;\r\n        string category;\r\n        string description;\r\n        address payable recipient;\r\n        uint256 deadline;\r\n        uint256 target;\r\n        uint256 raisedAmount;\r\n        bool completed;\r\n        uint256 noOfDonors;\r\n        uint256 approved;\r\n    }\r\n\r\n    mapping(address => uint256[]) whocreaterequest; //to see Who creates a particular request\r\n    mapping(uint256 => Request) public requests; // keep id,record pair\r\n    uint256 public numRequests; // keep count of requests\r\n\r\n    constructor() {\r\n        manager = msg.sender;\r\n    }\r\n\r\n    receive() external payable {}\r\n\r\n    // function for donors to donate the amount for a request\r\n    function sendEth(uint256 i) public payable returns (bool) {\r\n        require(block.timestamp < requests[i].deadline, \"deadline passed\");\r\n        require(\r\n            requests[i].raisedAmount < requests[i].target,\r\n            \"target Achieved\"\r\n        );\r\n        // if(requests[i].donors[msg.sender]==0)\r\n        requests[i].noOfDonors++;\r\n        if (contributors[msg.sender] == false) {\r\n            contributors[msg.sender] = true;\r\n            cont++;\r\n        }\r\n\r\n        requests[i].raisedAmount += msg.value;\r\n        contributes[msg.sender] += msg.value;\r\n\r\n        if (requests[i].raisedAmount >= requests[i].target) {\r\n            extra += (requests[i].raisedAmount - requests[i].target);\r\n            makePayment(i);\r\n        }\r\n        return true;\r\n    }\r\n\r\n    modifier onlyManger() {\r\n        require(msg.sender == manager, \"Only manager can calll this function\");\r\n        _;\r\n    }\r\n\r\n    // function to know contract balance\r\n    function getContractBalance() public view returns (uint256) {\r\n        return address(this).balance;\r\n    }\r\n\r\n    // function for creating request\r\n    function createRequests(\r\n        string memory cate,\r\n        string memory _description,\r\n        string memory imghash,\r\n        string memory filehash,\r\n        address payable _recipient,\r\n        uint256 _time,\r\n        uint256 _target\r\n    ) public {\r\n        // require(block.timestamp>_time,\"deadline passed\");\r\n        Request storage newRequest = requests[numRequests];\r\n        newRequest.id = numRequests;\r\n        newRequest.category = cate;\r\n        newRequest.img_hash = imghash;\r\n        newRequest.file_hash = filehash;\r\n        newRequest.description = _description;\r\n        newRequest.recipient = _recipient;\r\n        newRequest.deadline = _time;\r\n        newRequest.target = _target;\r\n        newRequest.raisedAmount = 0;\r\n        newRequest.completed = false;\r\n        newRequest.approved = 0;\r\n        newRequest.noOfDonors = 0;\r\n        whocreaterequest[msg.sender].push(numRequests);\r\n        numRequests++;\r\n    }\r\n\r\n    //function to get no of request an particular address creates\r\n    function seemyrequests() public view returns (Request[] memory) {\r\n        Request[] memory yrequest = new Request[](\r\n            (whocreaterequest[msg.sender]).length\r\n        );\r\n\r\n        for (uint256 i = 0; i < whocreaterequest[msg.sender].length; i++) {\r\n            Request storage lBi = requests[(whocreaterequest[msg.sender])[i]];\r\n            yrequest[i] = lBi;\r\n        }\r\n        return yrequest;\r\n    }\r\n\r\n    //function to validate an pending request\r\n    function isApproved(uint256 id, uint256 a) public onlyManger {\r\n        requests[id].approved = a;\r\n    }\r\n\r\n    //function to return request details\r\n    function getRequest(uint256 id) public view returns (Request memory) {\r\n        Request storage r = requests[id];\r\n        return r;\r\n    }\r\n\r\n    function getBid() public view returns (Request[] memory) {\r\n        Request[] memory lBids = new Request[](numRequests);\r\n        for (uint256 i = 0; i < numRequests; i++) {\r\n            //  require(requests[i].completed==false);\r\n            Request storage lBid = requests[i];\r\n            lBids[i] = lBid;\r\n        }\r\n        return lBids;\r\n    }\r\n\r\n    // function to return manager address\r\n    function getmanager() public view returns (address) {\r\n        return manager;\r\n    }\r\n\r\n    //function to get count of requests\r\n    function getRequestNo() public view returns (uint256) {\r\n        return numRequests;\r\n    }\r\n\r\n    //function to send the raised ami=ount to receipients address\r\n    function makePayment(uint256 i) public payable {\r\n        //    for(uint i=0;i<numRequests;i++)\r\n        //    {\r\n        Request storage thisRequest = requests[i];\r\n        require(thisRequest.deadline >= block.timestamp, \"Deadline Passed\");\r\n        require(\r\n            thisRequest.raisedAmount >= requests[i].target,\r\n            \"Target not Acheived Yet\"\r\n        );\r\n        require(thisRequest.approved == 1, \"Request not approved\");\r\n        require(\r\n            thisRequest.completed == false,\r\n            \"The request has been completed\"\r\n        );\r\n        payable(thisRequest.recipient).transfer(\r\n            ((thisRequest.raisedAmount) * 99) / 100\r\n        );\r\n        thisRequest.completed = true;\r\n        thisRequest.approved = 1;\r\n        //    }\r\n    }\r\n\r\n    //function to check amount an particular address has donate\r\n    function contri() public view returns (uint256) {\r\n        return contributes[msg.sender];\r\n    }\r\n}\r\n",
  "sourcePath": "C:\\Users\\choud\\Crowdfunding-DAap\\contracts\\Funder.sol",
  "compiler": {
    "name": "solc",
    "version": "0.8.9+commit.e5eed63a.Emscripten.clang"
  },
  "schemaVersion": "3.4.7",
  "updatedAt": "2023-08-07T14:15:44.380Z",
  "networkType": "ethereum",
  "devdoc": {
    "kind": "dev",
    "methods": {},
    "version": 1
  },
  "userdoc": {
    "kind": "user",
    "methods": {},
    "version": 1
  }
}